:100000000C9446000C9466000C9466000C946600F8
:100010000C9466000C9466000C9466000C946600C8
:100020000C9466000C9466000C9466000C946600B8
:100030000C9466000C9466000C9466000C946600A8
:100040000C9466000C9466000C9466000C94660098
:100050000C9466000C9466000C9466000C94660088
:100060000C9466000C9466000C9466000C94660078
:100070000C9466000C9466000C9466000C94660068
:100080000C9466000C9466000C94660011241FBE4C
:10009000CFEFD0E1DEBFCDBF11E0A0E0B1E0EEE1F7
:1000A000F1E000E00BBF02C007900D92AA30B1074B
:1000B000D9F71BBE11E0AAE0B1E001C01D92AC303F
:1000C000B107E1F70E9468000C948D000C940000C9
:1000D0008FEF81BB8FE082B981E083B9809100010D
:1000E00082BB2FEF3FEF0E99FECF80910A019091D6
:1000F0000B01019690930B0180930A01FC01E050E3
:10010000FF4F408142BB8930910521F430930B01B0
:0E01100020930A010E9BFECFE6CFF894FFCF9E
:0A011E00C0F9A4B0999282F8809015
:00000001FF
