:100000000C9446000C9466000C9466000C946600F8
:100010000C9466000C9466000C9466000C946600C8
:100020000C9466000C9466000C9466000C946600B8
:100030000C9466000C9466000C9466000C946600A8
:100040000C9466000C9466000C9466000C94660098
:100050000C9466000C9466000C9466000C94660088
:100060000C9466000C9466000C9466000C94660078
:100070000C9466000C9466000C9466000C94660068
:100080000C9466000C9466000C94660011241FBE4C
:10009000CFEFD0E1DEBFCDBF11E0A0E0B1E0EAEFED
:1000A000F1E000E00BBF02C007900D92AE30B10747
:1000B000D9F71BBE11E0AEE0B1E001C01D92A63140
:1000C000B107E1F70E9468000C94FB000C9400005B
:1000D0008FEF81BB8FE082B9CAE0D0E084E6E82EE2
:1000E000F12C98EEC92E93E0D92E20910E0130917B
:1000F0000F01C901BE010E94D400CB01BE010E94C4
:10010000D400FC019093150180931401C901B7013B
:100110000E94D400CB01BE010E94D4008C019093B8
:10012000130180931201C901B6010E94D40070939B
:100130001101609310012F5F3F4F30930F01209307
:100140000E018091000183B9EC5FFE4F808182BB7C
:100150008FE893E30197F1F700C00000809101015F
:1001600083B9F801EC5FFE4F808182BBEFE8F3E3D7
:100170003197F1F700C000008091020183B96C5FF4
:100180007E4FFB01808182BB8FE195E30197F1F700
:1001900000C0000097E22031390709F0A6CF109285
:1001A0000F0110920E01A1CF97FB092E07260AD04E
:1001B00077FD04D00CD006D000201AF4709561951C
:1001C0007F4F0895F6F7909581959F4F0895AA1B4C
:1001D000BB1B51E107C0AA1FBB1FA617B70710F032
:1001E000A61BB70B881F991F5A95A9F78095909564
:0A01F000BC01CD010895F894FFCF83
:0E01FA0001020408C0F9A4B0999282F8809026
:00000001FF
