:100000000C9446000C9466000C9466000C946600F8
:100010000C9466000C9466000C9466000C946600C8
:100020000C9466000C9466000C9466000C946600B8
:100030000C9466000C9466000C9466000C946600A8
:100040000C9466000C9466000C9466000C94660098
:100050000C9466000C9466000C9466000C94660088
:100060000C9466000C9466000C9466000C94660078
:100070000C9466000C9466000C9466000C94660068
:100080000C9466000C9466000C94660011241FBE4C
:10009000CFEFD0E1DEBFCDBF11E0A0E0B1E0E2E004
:1000A000F1E000E00BBF02C007900D92A030B10755
:1000B000D9F71BBE11E0A0E0B1E001C01D92A03055
:1000C000B107E1F70E9468000C947F000C940000D7
:1000D0008FEF8ABB80E090E021E0322F30953BBB70
:1000E000220F4FEF53ED60E3415050406040E1F785
:1000F00000C0000001968830910564F7EECFF894B7
:02010000FFCF2F
:00000001FF
