:100000000C9446000C9466000C9466000C946600F8
:100010000C9466000C9466000C9466000C946600C8
:100020000C9466000C9466000C9466000C946600B8
:100030000C9466000C9466000C9466000C946600A8
:100040000C9468000C9466000C9466000C94660096
:100050000C9466000C9466000C9466000C94660088
:100060000C9466000C9466000C9466000C94660078
:100070000C9466000C9466000C9466000C94660068
:100080000C9466000C9466000C94660011241FBE4C
:10009000CFEFD0E1DEBFCDBF11E0A0E0B1E0E6E3FD
:1000A000F1E000E00BBF02C007900D92A230B10753
:1000B000D9F71BBE11E0A2E0B1E001C01D92A33050
:1000C000B107E1F70E9487000C9499000C9400009E
:1000D0001F920F920FB60F9211248F931FBE8FE5C0
:1000E00082BF809102018F5F80930201843639F4D0
:1000F000809100018150809300011092020180E8FC
:100100008FBF8F910F900FBE0F901F9018958FEF9C
:100110008ABB87E083BF8FE582BF87B7816087BFD7
:1001200086B7816086BF80E88FBF809100018BBB5E
:06013000FCCFF894FFCFA4
:02013600FF00C8
:00000001FF
