:100000000C9446000C9466000C9466000C946600F8
:100010000C9466000C9466000C9466000C946600C8
:100020000C9466000C9466000C9466000C946600B8
:100030000C9466000C9466000C9466000C946600A8
:100040000C9466000C9466000C9466000C94660098
:100050000C9466000C9466000C9466000C94660088
:100060000C9466000C9466000C9466000C94660078
:100070000C9466000C9466000C9466000C94660068
:100080000C9466000C9466000C94660011241FBE4C
:10009000CFEFD0E1DEBFCDBF11E0A0E0B1E0E2E103
:1000A000F1E000E00BBF02C007900D92A030B10755
:1000B000D9F71BBE11E0A0E0B1E001C01D92A03055
:1000C000B107E1F70E9468000C9487000C940000CF
:1000D0008FEF8ABB80E090E02FE730E0A901082E87
:1000E00002C0559547950A94E2F740954BBB4FEFF8
:1000F00053ED60E3415050406040E1F700C0000024
:1001000001968830910554F380E090E0E7CFF894B1
:02011000FFCF1F
:00000001FF
