:100000000C9446000C9466000C9466000C946600F8
:100010000C9466000C9466000C9466000C946600C8
:100020000C9466000C9466000C9466000C946600B8
:100030000C9466000C9466000C9466000C946600A8
:100040000C9466000C9466000C9466000C94660098
:100050000C9466000C9466000C9466000C94660088
:100060000C9466000C9466000C9466000C94660078
:100070000C9466000C9466000C9466000C94660068
:100080000C9466000C9466000C94660011241FBE4C
:10009000CFEFD0E1DEBFCDBF11E0A0E0B1E0E0E8FE
:1000A000F1E000E00BBF02C007900D92AA30B1074B
:1000B000D9F71BBE11E0AAE0B1E001C01D92AC303F
:1000C000B107E1F70E9468000C94BE000C94000098
:1000D0008FEF81BB8FE082B981E083B9809100010D
:1000E00082BB8FEF9FEF2AE030E00E9922C0409153
:1000F0000A0150910B014930510521F490930B01F5
:1001000080930A0140910A0150910B014F5F5F4FAC
:1001100050930B0140930A0140505F4FFA01408118
:1001200042BBEFE1FEE43197F1F700C000000E9B07
:10013000FECF0F99DACF40910A0150910B01411582
:10014000510521F430930B0120930A0140910A01DB
:1001500050910B014150504050930B0140930A01C4
:1001600040505F4FFA01408142BBEFE1FEE431971E
:10017000F1F700C000000F9BFECFB7CFF894FFCF80
:0A018000C0F9A4B0999282F88090B3
:00000001FF
