:100000000C9446000C9466000C9466000C946600F8
:100010000C9466000C9466000C9466000C946600C8
:100020000C9466000C9466000C9466000C946600B8
:100030000C9466000C9466000C9466000C946600A8
:100040000C9466000C9466000C9466000C94660098
:100050000C9466000C9466000C9466000C94660088
:100060000C9466000C9466000C9466000C94660078
:100070000C9466000C9466000C9466000C94660068
:100080000C9466000C9466000C94660011241FBE4C
:10009000CFEFD0E1DEBFCDBF11E0A0E0B1E0EEECEC
:1000A000F2E000E00BBF02C007900D92A030B10754
:1000B000D9F71BBE11E0A0E0B1E001C01D92A23053
:1000C000B107E1F70E94E1000C9465010C94000077
:1000D000E5E6F0E09CEF908385BB808194E0892782
:1000E00080838FE39FE10197F1F700C0000008953E
:1000F000E5E6F0E09DEF908385BB808194E0892761
:1001000080838FE39FE10197F1F700C0000008951D
:100110008FEF84BB85BB8093640080936500089556
:100120008FE59AEE0197F1F700C0000088E30E9486
:1001300068008FE19EE40197F1F700C0000088E3BA
:100140000E9468008FE891E00197F1F700C000007D
:1001500088E30E94680088E00E94680081E00E94B5
:10016000680086E00E9468008CE00E9468000895A4
:10017000EF92FF921F93CF93DF930F92CDB7DEB72D
:10018000182FE82EF92E07C0F70181917F016983AE
:100190000E94780069818E2D811B8617A8F30F902D
:1001A000DF91CF911F91FF90EF90089581309105DD
:1001B00019F4862F815802C0862F81540E9468004E
:1001C00008950E9488000E94900008EE13E0CAE0A3
:1001D000D0E084E6E82EF12C82E00E946800809155
:1001E000000190910101B8010E943E01CB01BE01C6
:1001F0000E943E01805D0E947800809100019091F4
:100200000101B7010E943E01CB01BE010E943E01E7
:10021000805D0E9478008091000190910101BE01F3
:100220000E943E01CB01BE010E943E01805D0E9402
:1002300078008091000190910101BE010E943E0171
:10024000805D0E94780080910001909101010196EB
:10025000909301018093000127E28031920724F0FE
:1002600010920101109200018FEF91EEA4E08150F5
:100270009040A040E1F700C00000AECF97FB092EF0
:1002800007260AD077FD04D00CD006D000201AF43F
:10029000709561957F4F0895F6F7909581959F4FE2
:1002A0000895AA1BBB1B51E107C0AA1FBB1FA617BD
:1002B000B70710F0A61BB70B881F991F5A95A9F70F
:0E02C00080959095BC01CD010895F894FFCF74
:00000001FF
