:100000000C9446000C9466000C9466000C946600F8
:100010000C9466000C9466000C9466000C946800C6
:100020000C9499000C9466000C9466000C94660085
:100030000C9466000C9466000C9466000C946600A8
:100040000C9466000C9466000C9466000C94660098
:100050000C9466000C9466000C9466000C94660088
:100060000C9466000C9466000C9466000C94660078
:100070000C9466000C9466000C9466000C94660068
:100080000C9466000C9466000C94660011241FBE4C
:10009000CFEFD0E1DEBFCDBF11E0A0E0B1E0EAECF0
:1000A000F1E000E00BBF02C007900D92AA30B1074B
:1000B000D9F71BBE11E0AAE0B1E001C01D92AC303F
:1000C000B107E1F70E94CA000C94E3000C94000011
:1000D0001F920F920FB60F920BB60F9211248F93AF
:1000E0009F93EF93FF9380910A0190910B018930C8
:1000F000910534F08FEF9FEF90930B0180930A01ED
:1001000080910A0190910B01019690930B018093CD
:100110000A0180509F4FFC01808182BBFF91EF91CB
:100120009F918F910F900BBE0F900FBE0F901F905D
:1001300018951F920F920FB60F920BB60F921124C3
:100140008F939F93EF93FF9380910A0190910B01FE
:100150001816190634F08AE090E090930B01809312
:100160000A0180910A0190910B01019790930B0174
:1001700080930A0180509F4FFC01808182BBFF91D8
:10018000EF919F918F910F900BBE0F900FBE0F902C
:100190001F9018958FEF81BB8FE082B980E88FBFE9
:1001A00080E489BF80E38ABF80EC89BF80EA8ABF90
:1001B00081E083B9E0910A01F0910B01E050FF4F1B
:0A01C000808182BBFFCFF894FFCFCF
:0A01CA00C0F9A4B0999282F8809069
:00000001FF
