:100000000C9446000C9466000C9466000C946600F8
:100010000C9466000C9466000C9466000C946600C8
:100020000C9466000C9466000C9466000C946600B8
:100030000C9466000C9466000C9466000C946600A8
:100040000C9466000C9466000C9466000C94660098
:100050000C9466000C9466000C9466000C94660088
:100060000C9466000C9466000C9466000C94660078
:100070000C9466000C9466000C9466000C94660068
:100080000C9466000C9466000C94660011241FBE4C
:10009000CFEFD0E1DEBFCDBF11E0A0E0B1E0E8E0FE
:1000A000F1E000E00BBF02C007900D92A030B10755
:1000B000D9F71BBE11E0A0E0B1E001C01D92A03055
:1000C000B107E1F70E9468000C9482000C940000D4
:1000D0008FEF8ABB9FE092B98BBB4DEF3FEF29EFCB
:1000E0009BEF81B1807C803429F0803829F088230F
:1000F00029F006C09BBBF5CF4BBBF3CF2BBBF1CF99
:080100003BBBEFCFF894FFCFE9
:00000001FF
