:100000000C9446000C9466000C9466000C946600F8
:100010000C9466000C9466000C9466000C946600C8
:100020000C9466000C9466000C9466000C946600B8
:100030000C9466000C9466000C9466000C946600A8
:100040000C9466000C9466000C9466000C94660098
:100050000C9466000C9466000C9466000C94660088
:100060000C9466000C9466000C9466000C94660078
:100070000C9466000C9466000C9466000C94660068
:100080000C9466000C9466000C94660011241FBE4C
:10009000CFEFD0E1DEBFCDBF11E0A0E0B1E0E8E8F6
:1000A000F3E000E00BBF02C007900D92A630B1074D
:1000B000D9F71BBE11E0A6E0B1E001C01D92AA3045
:1000C000B107E1F70E94E1000C94C2010C9400001A
:1000D000E5E6F0E09CEF908385BB808194E0892782
:1000E00080838FE39FE10197F1F700C0000008953E
:1000F000E5E6F0E09DEF908385BB808194E0892761
:1001000080838FE39FE10197F1F700C0000008951D
:100110008FEF84BB85BB8093640080936500089556
:100120008FE59AEE0197F1F700C0000088E30E9486
:1001300068008FE19EE40197F1F700C0000088E3BA
:100140000E9468008FE891E00197F1F700C000007D
:1001500088E30E94680088E00E94680081E00E94B5
:10016000680086E00E9468008CE00E9468000895A4
:10017000EF92FF921F93CF93DF930F92CDB7DEB72D
:10018000182FE82EF92E07C0F70181917F016983AE
:100190000E94780069818E2D811B8617A8F30F902D
:1001A000DF91CF911F91FF90EF90089581309105DD
:1001B00019F4862F815802C0862F81540E9468004E
:1001C00008950E9488000E94900081E090E067E01E
:1001D00070E00E94D60080E091E064E00E94B800E8
:1001E00028EE822E23E0922EA12CB12C3AE0C32ED1
:1001F000D12CE12CF12C44E6442E512C612C712C95
:1002000081E090E067E070E00E94D6006091060116
:10021000709107018091080190910901A501940155
:100220000E948501CA01B901A70196010E948501BA
:10023000862F805D0E947800609106017091070111
:100240008091080190910901A30192010E9485010A
:10025000CA01B901A70196010E948501862F805D20
:100260000E94780060910601709107018091080159
:1002700090910901A70196010E948501CA01B90167
:10028000A70196010E948501862F805D0E9478005B
:100290006091060170910701809108019091090118
:1002A000A70196010E948501862F805D0E9478003B
:1002B0008091060190910701A0910801B091090178
:1002C0000196A11DB11D8093060190930701A09393
:1002D0000801B0930901803127E2920720E0A207CC
:1002E00020E0B20744F0109206011092070110922C
:1002F0000801109209018FEF91EEA4E08150904027
:10030000A040E1F700C000007BCF97FB092E052637
:100310000ED057FD04D014D00AD0001C38F45095EC
:100320004095309521953F4F4F4F5F4F0895F6F719
:1003300090958095709561957F4F8F4F9F4F089551
:10034000A1E21A2EAA1BBB1BFD010DC0AA1FBB1FD9
:10035000EE1FFF1FA217B307E407F50720F0A21B4B
:10036000B30BE40BF50B661F771F881F991F1A94B8
:1003700069F760957095809590959B01AC01BD01E2
:08038000CF010895F894FFCFAE
:06038800303030300000AF
:00000001FF
