:100000000C9446000C9466000C9466000C946600F8
:100010000C9466000C9466000C9466000C946600C8
:100020000C9466000C9466000C9466000C946600B8
:100030000C9466000C9466000C9466000C946600A8
:100040000C9466000C9466000C9466000C94660098
:100050000C9466000C9466000C9466000C94660088
:100060000C9466000C9466000C9466000C94660078
:100070000C9466000C9466000C9466000C94660068
:100080000C9466000C9466000C94660011241FBE4C
:10009000CFEFD0E1DEBFCDBF11E0A0E0B1E0E2E400
:1000A000F1E000E00BBF02C007900D92A030B10755
:1000B000D9F71BBE11E0A0E0B1E001C01D92A03055
:1000C000B107E1F70E9468000C949F000C940000B7
:1000D0008FEF8ABB2DC0622F68236BBB95958795E8
:1000E00080589F4F220F331F2F5F3F4F4FEF53ED2D
:1000F00060E3415050406040E1F700C0000031969D
:10010000E330F10544F3E3E0F0E0622F68236BBBDA
:10011000880F991F0196359527954FEF53ED60E3B2
:10012000415050406040E1F700C00000319769F74E
:100130002EEF30E08FE790E0E0E0F0E0E1CFF894E0
:02014000FFCFEF
:00000001FF
