:100000000C9446000C9466000C9466000C946600F8
:100010000C9466000C9466000C9466000C94DE0050
:100020000C9403010C9466000C9466000C9466001A
:100030000C9466000C9466000C9466000C946600A8
:100040000C9466000C9466000C9466000C94660098
:100050000C9466000C9466000C9466000C94660088
:100060000C9466000C9466000C9466000C94660078
:100070000C9466000C9466000C9466000C94660068
:100080000C9466000C9466000C94660011241FBE4C
:10009000CFEFD0E1DEBFCDBF11E0A0E0B1E0E6EEF2
:1000A000F3E000E00BBF02C007900D92A630B1074D
:1000B000D9F71BBE11E0A6E0B1E001C01D92AE3041
:1000C000B107E1F70E941D010C94F1010C940000AE
:1000D000E5E6F0E09CEF908385BB808194E0892782
:1000E00080838FE39FE10197F1F700C0000008953E
:1000F000E5E6F0E09DEF908385BB10828FE39FE102
:100100000197F1F700C0000008958FEF84BB85BB15
:10011000809364008093650008958FE59AEE0197BF
:10012000F1F700C0000088E30E9468008FE19EE4C0
:100130000197F1F700C0000088E30E9468008FE893
:1001400091E00197F1F700C0000088E30E94680089
:1001500088E00E94680081E00E94680086E00E94BA
:1001600068008CE00E9468000895EF92FF921F9350
:10017000CF93DF930F92CDB7DEB7182FE82EF92E6D
:1001800007C0F70181917F0169830E94780069812E
:100190008E2D811B8617A8F30F90DF91CF911F91B1
:1001A000FF90EF9008958130910519F4862F8158C2
:1001B00002C0862F81540E94680008951F920F92FA
:1001C0000FB60F9211245F936F937F938F939F933A
:1001D000AF93BF9380910C0190910D01019662E065
:1001E00070E00E94CA0190930D0180930C01BF91B1
:1001F000AF919F918F917F916F915F910F900FBE03
:100200000F901F9018951F920F920FB60F92112406
:1002100010920D0110920C0110920B0110920A0124
:100220001092090110920801109207011092060124
:100230000F900FBE0F901F9018958FE082B980E845
:100240008FBF80E489BF80E38ABF80EC89BF80EAEA
:100250008ABF0E9485000E948D0081E090E067E0E7
:1002600070E00E94D30080E091E064E00E94B5005D
:10027000CAE0D0E08FEF93EDA0E381509040A04022
:10028000E1F700C0000080910C0190910D018130D8
:10029000910549F480910A0190910B010196909388
:1002A0000B0180930A0180910A0190910B018C331C
:1002B000910524F110920B0110920A01809108011E
:1002C00090910901019690930901809308018C3364
:1002D0009105A4F010920901109208018091060185
:1002E0009091070101969093070180930601883150
:1002F000910524F0109207011092060182E090E02F
:1003000065E070E00E94D3008091060190910701A2
:10031000BE010E94CA01862F805D0E9478008091F4
:10032000060190910701BE010E94CA01805D0E94F2
:1003300078008AE30E947800809108019091090179
:10034000BE010E94CA01862F805D0E9478008091C4
:10035000080190910901BE010E94CA01805D0E94BE
:1003600078008AE30E94780080910A0190910B0145
:10037000BE010E94CA01862F805D0E947800809194
:100380000A0190910B01BE010E94CA01805D0E948A
:10039000780070CF97FB092E07260AD077FD04D08E
:1003A0000CD006D000201AF4709561957F4F089507
:1003B000F6F7909581959F4F0895AA1BBB1B51E1BD
:1003C00007C0AA1FBB1FA617B70710F0A61BB70BC5
:1003D000881F991F5A95A9F780959095BC01CD016A
:0603E0000895F894FFCF20
:0603E60054494D450000E2
:00000001FF
