:100000000C9446000C9466000C9466000C946600F8
:100010000C9466000C9466000C9466000C946600C8
:100020000C9466000C9466000C9466000C946600B8
:100030000C9466000C9466000C9466000C946600A8
:100040000C9466000C9466000C9466000C94660098
:100050000C9466000C9466000C9466000C94660088
:100060000C9466000C9466000C9466000C94660078
:100070000C9466000C9466000C9466000C94660068
:100080000C9466000C9466000C94660011241FBE4C
:10009000CFEFD0E1DEBFCDBF11E0A0E0B1E0EAEAF2
:1000A000F2E000E00BBF02C007900D92A030B10754
:1000B000D9F71BBE11E0A0E0B1E001C01D92A03055
:1000C000B107E1F70E94B8000C9453010C940000B2
:1000D000E5E6F0E09CEF908385BB808194E0892782
:1000E00080838FE39FE10197F1F700C0000008953E
:1000F000E5E6F0E09DEF908385BB808194E0892761
:1001000080838FE39FE10197F1F700C0000008951D
:100110008FEF84BB85BB8093640080936500089556
:100120008FE59AEE0197F1F700C0000088E30E9486
:1001300068008FE19EE40197F1F700C0000088E3BA
:100140000E9468008FE891E00197F1F700C000007D
:1001500088E30E94680088E00E94680081E00E94B5
:10016000680086E00E9468008CE00E9468000895A4
:100170000E9488000E94900087E40E94780083E536
:100180000E9478008DE40E9478008FEF93EDA0E349
:1001900081509040A040E1F700C0000081E00E9443
:1001A00068008FEF93EDA0E381509040A040E1F70D
:1001B00000C0000087E40E94780083E50E94780078
:1001C0008DE40E94780080E20E9478008BE40E9417
:1001D000780089E40E9478008DE40E94780080E233
:1001E0000E94780083E50E94780085E40E947800F0
:1001F0008FE40E9478008EE40E94780087E40E94D9
:1002000078008DE40E94780089E40E9478008EE4F2
:100210000E94780080EC0E94680088E40E947800C8
:1002200085E40E9478008CE40E9478008CE40E94AF
:1002300078008FE40E94780080E20E94780087E5D1
:100240000E9478008FE40E94780082E50E94780086
:100250008CE40E94780084E40E9478008FEF93ED94
:10026000A0E381509040A040E1F700C0000080E88A
:100270000E94680080E20E94780080E20E9478007C
:1002800080E20E94780080E20E9478008FEF93ED78
:10029000A0E381509040A040E1F700C0000081E061
:0A02A0000E94680087CFF894FFCF9A
:00000001FF
