:100000000C9446000C9466000C9466000C946600F8
:100010000C9466000C9466000C9466000C946600C8
:100020000C9466000C9466000C9466000C946600B8
:100030000C9466000C9466000C9466000C946600A8
:100040000C9466000C9466000C9466000C94660098
:100050000C9466000C9466000C9466000C94660088
:100060000C9466000C9466000C9466000C94660078
:100070000C9466000C9466000C9466000C94660068
:100080000C9466000C9466000C94660011241FBE4C
:10009000CFEFD0E1DEBFCDBF11E0A0E0B1E0E8E3FB
:1000A000F1E000E00BBF02C007900D92A030B10755
:1000B000D9F71BBE11E0A0E0B1E001C01D92A03055
:1000C000B107E1F70E9468000C949A000C940000BC
:1000D0008FEF8ABB28C0622F68236BBB4FEF53EDB5
:1000E00060E3415050406040E1F700C0000095954A
:1000F0008795220F331F3196E330F10564F3E3E077
:10010000F0E0622F68236BBB4FEF53ED60E341508B
:1001100050406040E1F700C00000880F991F3595FE
:100120002795319771F72EEF30E08FE790E0E0E010
:08013000F0E0E2CFF894FFCFEC
:00000001FF
