:100000000C9446000C9466000C9466000C946600F8
:100010000C9466000C9466000C9466000C946600C8
:100020000C9466000C9466000C9466000C946600B8
:100030000C9466000C9466000C9466000C946600A8
:100040000C9466000C9466000C9466000C94660098
:100050000C9466000C9466000C9466000C94660088
:100060000C9466000C9466000C9466000C94660078
:100070000C9466000C9466000C9466000C94660068
:100080000C9466000C9466000C94660011241FBE4C
:10009000CFEFD0E1DEBFCDBF11E0A0E0B1E0E0E303
:1000A000F1E000E00BBF02C007900D92A230B10753
:1000B000D9F71BBE11E0A2E0B1E001C01D92A23051
:1000C000B107E1F70E9468000C9496000C940000C0
:1000D0008FEF8ABB28C0209100012BBB220F2F5F1E
:1000E000209300012FEF33ED40E32150304040409A
:1000F000E1F700C0000001968730910564F387E0C6
:1001000090E0209100012BBB269520582093000100
:100110002FEF33ED40E3215030404040E1F700C085
:100120000000019771F780E090E0E6CFF894FFCFF0
:02013000FE00CF
:00000001FF
