:100000000C9446000C9466000C9466000C946600F8
:100010000C9466000C9466000C9466000C946600C8
:100020000C9466000C9466000C9466000C946600B8
:100030000C9466000C9466000C9466000C946600A8
:100040000C9466000C9466000C9466000C94660098
:100050000C9466000C9466000C9466000C94660088
:100060000C9466000C9466000C9466000C94660078
:100070000C9466000C9466000C9466000C94660068
:100080000C9466000C9466000C94660011241FBE4C
:10009000CFEFD0E1DEBFCDBF11E0A0E0B1E0E6E1FF
:1000A000F1E000E00BBF02C007900D92AE30B10747
:1000B000D9F71BBE11E0AEE0B1E001C01D92AE3039
:1000C000B107E1F70E9468000C9489000C940000CD
:1000D0008FEF81BB8FE082B980E090E024E030E0D8
:1000E000FC01E050FF4F408143B9F901E81BF90BD7
:1000F000EC5FFE4F408142BBEFE1FEE43197F1F748
:1001000000C0000001968430910554F380E090E037
:06011000E7CFF894FFCFD9
:0E01160001020408C0F9A4B0999282F880900A
:00000001FF
