:100000000C9446000C9466000C9466000C946600F8
:100010000C9466000C9466000C9466000C946800C6
:100020000C9466000C9466000C9466000C946600B8
:100030000C9466000C9466000C9466000C946600A8
:100040000C9466000C9466000C9466000C94660098
:100050000C9466000C9466000C9466000C94660088
:100060000C9466000C9466000C9466000C94660078
:100070000C9466000C9466000C9466000C94660068
:100080000C9466000C9466000C94660011241FBE4C
:10009000CFEFD0E1DEBFCDBF11E0A0E0B1E0E2E400
:1000A000F1E000E00BBF02C007900D92A030B10755
:1000B000D9F71BBE11E0A0E0B1E001C01D92A23053
:1000C000B107E1F70E9495000C949F000C9400008A
:1000D0001F920F920FB60F9211242F933F938F937D
:1000E0009F93209100013091010181E090E0022E68
:1000F00002C0880F991F0A94E2F780958BBBC90153
:10010000019690930101809300018830910524F0BD
:1001100010920101109200019F918F913F912F91B8
:100120000F900FBE0F901F9018958FEF8ABB8BBB5F
:1001300080E88FBF80E489BF80E38ABFFFCFF89457
:02014000FFCFEF
:00000001FF
