:100000000C9446000C9466000C9466000C946600F8
:100010000C9466000C9468000C947F000C9496007D
:100020000C94BE000C9466000C9466000C94660060
:100030000C9466000C9466000C9466000C946600A8
:100040000C9466000C9466000C9466000C94660098
:100050000C9466000C9466000C9466000C94660088
:100060000C9466000C9466000C9466000C94660078
:100070000C9466000C9466000C9466000C94660068
:100080000C9466000C9466000C94660011241FBE4C
:10009000CFEFD0E1DEBFCDBF11E0A0E0B1E0E0E9FD
:1000A000F3E000E00BBF02C007900D92AE30B10745
:1000B000D9F71BBE11E0AEE0B1E001C01D92AA313C
:1000C000B107E1F70E94E0000C94C6010C94000017
:1000D0001F920F920FB60F9211248F939F938091CE
:1000E00016019091170101969093170180931601C4
:1000F0009F918F910F900FBE0F901F9018951F9298
:100100000F920FB60F9211248F939F938091180135
:1001100090911901019690931901809318019F9174
:100120008F910F900FBE0F901F9018951F920F92F6
:100130000FB60F9211245F936F937F938F939F93CA
:10014000AF93BF9380910E0190910F01019662E0F1
:1001500070E00E949F0190930F0180930E018BB37A
:1001600080958BBBBF91AF919F918F917F916F9144
:100170005F910F900FBE0F901F9018951F920F92D6
:100180000FB60F9211248F93109213011092120147
:10019000109215011092140110921701109216017D
:1001A000109219011092180110920F0110920E0175
:1001B0008FEF8BBB8F910F900FBE0F901F901895F4
:1001C0008FEF8ABB81BB9FE092B990E89FBF90E41C
:1001D00099BF90E39ABF90EF99BF9AEA9ABF8BBB01
:1001E00080910E0190910F018130910549F4809129
:1001F00012019091130101969093130180931201C3
:1002000080911201909113018A30910569F4109246
:100210001301109212018091140190911501019621
:100220009093150180931401809114019091150110
:100230008630910569F41092150110921401809195
:100240001601909117010196909317018093160162
:1002500080911601909117018A30910569F41092EE
:1002600017011092160180911801909119010196C1
:1002700090931901809318018091180190911901B0
:100280008630910521F410921901109218011092F4
:100290001101109210014AC02091000123B9E09190
:1002A0001201F0911301EC5FFE4F208122BBEFE0C1
:1002B000F7E23197F1F700C000002091010123B966
:1002C000E0911401F0911501EC5FFE4F208122BBFB
:1002D000EFE0F7E23197F1F700C000002091020152
:1002E00023B9E0911601F0911701EC5FFE4F2081D8
:1002F0002F7722BBEFE0F7E23197F1F700C0000063
:100300002091030123B9E0911801F0911901EC5FEC
:10031000FE4F208122BBEFE0F7E23197F1F700C0FA
:1003200000000196909311018093100180911001BB
:10033000909111018A3091050CF4AECF51CF97FB0B
:10034000092E07260AD077FD04D00CD006D0002055
:100350001AF4709561957F4F0895F6F79095819501
:100360009F4F0895AA1BBB1B51E107C0AA1FBB1FCB
:10037000A617B70710F0A61BB70B881F991F5A9531
:10038000A9F780959095BC01CD010895F894FFCF11
:0E03900001020408C0F9A4B0999282F880908E
:00000001FF
